:020000040800F2
:100000000080012069210008270C0008350C000839
:100010003B0C0008410C0008470C000800000000E1
:100020000000000000000000000000004D0C00086F
:100030005B0C000800000000690C0008770C000849
:10004000B1210008B1210008B1210008B121000848
:10005000B1210008B1210008C50C0008B121000839
:10006000B1210008B1210008B1210008B121000828
:10007000B1210008B1210008B1210008B121000818
:10008000B1210008B1210008B1210008B121000808
:10009000B1210008B1210008B1210008B1210008F8
:1000A000B1210008B1210008B1210008B1210008E8
:1000B000B1210008B1210008B1210008B1210008D8
:1000C000B1210008B1210008B1210008B1210008C8
:1000D000B1210008B1210008B1210008B1210008B8
:1000E000B1210008B1210008B1210008B1210008A8
:1000F000B1210008B1210008B1210008B121000898
:10010000B1210008B1210008B1210008B121000887
:10011000B1210008B1210008B1210008B121000877
:10012000B1210008B1210008B1210008B121000867
:10013000B1210008B1210008B1210008B121000857
:1001400000000000000000000000000000000000AF
:10015000B1210008B1210008B1210008B121000837
:10016000B1210008B1210008B1210008B121000827
:10017000B1210008B1210008B1210008B121000817
:04018000B1210008A1
:1001900010B5054C237833B9044B13B10448AFF3C1
:1001A00000800123237010BDFC010020000000002E
:1001B000A452000808B5034B1BB103490348AFF331
:1001C000008008BD0000000000020020A4520008CA
:1001D00081F0004102E000BF83F0004330B54FEAF8
:1001E00041044FEA430594EA050F08BF90EA020F65
:1001F0001FBF54EA000C55EA020C7FEA645C7FEAF8
:10020000655C00F0E2804FEA5454D4EB5555B8BF1A
:100210006D420CDD2C4480EA020281EA030382EA8B
:10022000000083EA010180EA020281EA0303362D1D
:1002300088BF30BD11F0004F4FEA01314FF4801CF0
:100240004CEA113102D0404261EB410113F0004F02
:100250004FEA03334CEA133302D0524263EB4303B9
:1002600094EA050F00F0A780A4F10104D5F1200E57
:100270000DDB02FA0EFC22FA05F2801841F10001B2
:1002800003FA0EF2801843FA05F359410EE0A5F186
:1002900020050EF1200E012A03FA0EFC28BF4CF0B7
:1002A000020C43FA05F3C01851EBE37101F000456D
:1002B00007D54FF0000EDCF1000C7EEB00006EEB7A
:1002C0000101B1F5801F1BD3B1F5001F0CD3490804
:1002D0005FEA30004FEA3C0C04F101044FEA44525B
:1002E00012F5800F80F09A80BCF1004F08BF5FEAE2
:1002F000500C50F1000041EB045141EA050130BDC2
:100300005FEA4C0C404141EB0101013C28BFB1F5D3
:10031000801FE9D291F0000F04BF01460020B1FA1E
:1003200081F308BF2033A3F10B03B3F120020CDAF1
:100330000C3208DD02F1140CC2F10C0201FA0CF0CF
:1003400021FA02F10CE002F11402D8BFC2F1200C34
:1003500001FA02F120FA0CFCDCBF41EA0C019040EA
:10036000E41AA2BF01EB0451294330BD6FEA040433
:100370001F3C1CDA0C340EDC04F11404C4F120021E
:1003800020FA04F001FA02F340EA030021FA04F330
:1003900045EA030130BDC4F10C04C4F1200220FA87
:1003A00002F001FA04F340EA0300294630BD21FAC5
:1003B00004F0294630BD94F0000F83F4801306BF8B
:1003C00081F480110134013D4EE77FEA645C18BF7F
:1003D0007FEA655C29D094EA050F08BF90EA020F16
:1003E00005D054EA000C04BF1946104630BD91EA0E
:1003F000030F1EBF0021002030BD5FEA545C05D111
:100400004000494128BF41F0004130BD14F580044F
:100410003CBF01F5801130BD01F0004545F0FE41C3
:1004200041F470014FF0000030BD7FEA645C1ABFF8
:10043000194610467FEA655C1CBF0B46024650EA2F
:10044000013406BF52EA033591EA030F41F400215B
:1004500030BD00BF90F0000F04BF0021704730B5E1
:100460004FF4806404F132044FF000054FF00001B6
:1004700050E700BF90F0000F04BF0021704730B577
:100480004FF4806404F1320410F0004548BF40424C
:100490004FF000013EE700BF42004FEAE2014FEAA1
:1004A00031014FEA02701FBF12F07F4393F07F4F7C
:1004B00081F06051704732F07F4208BF704793F07F
:1004C0007F4F04BF41F40021704730B54FF4607492
:1004D00001F0004521F000411CE700BF50EA010295
:1004E00008BF704730B54FF000050AE050EA01023E
:1004F00008BF704730B511F0004502D5404261EBAE
:1005000041014FF4806404F132045FEA915C3FF4EE
:10051000D8AE4FF003025FEADC0C18BF03325FEA8B
:10052000DC0C18BF033202EBDC02C2F1200300FA3C
:1005300003FC20FA02F001FA03FE40EA0E0021FA61
:1005400002F11444BDE600BF70B54FF0FF0C4CF44F
:10055000E06C1CEA11541DBF1CEA135594EA0C0F01
:1005600095EA0C0F00F0DEF82C4481EA030621EA3C
:100570004C5123EA4C5350EA013518BF52EA033577
:1005800041F4801143F4801338D0A0FB02CE4FF029
:100590000005E1FB02E506F00042E0FB03E54FF059
:1005A0000006E1FB03569CF0000F18BF4EF0010E51
:1005B000A4F1FF04B6F5007F64F5407404D25FEA4D
:1005C0004E0E6D4146EB060642EAC62141EA555100
:1005D0004FEAC52040EA5E504FEACE2EB4F1FD0C42
:1005E00088BFBCF5E06F1ED8BEF1004F08BF5FEAC0
:1005F000500E50F1000041EB045170BD06F0004672
:1006000046EA010140EA020081EA0301B4EB5C041E
:10061000C2BFD4EB0C0541EA045170BD41F4801116
:100620004FF0000E013C00F3AB8014F1360FDEBF3B
:10063000002001F0004170BDC4F10004203C35DA17
:100640000C341BDC04F11404C4F1200500FA05F39A
:1006500020FA04F001FA05F240EA020001F000423B
:1006600021F0004110EBD37021FA04F642EB0601B1
:100670005EEA430E08BF20EAD37070BDC4F10C04DB
:10068000C4F1200500FA04F320FA05F001FA04F29F
:1006900040EA020001F0004110EBD37041F100018B
:1006A0005EEA430E08BF20EAD37070BDC4F1200596
:1006B00000FA05F24EEA020E20FA04F301FA05F2FE
:1006C00043EA020321FA04F001F0004121FA04F2A6
:1006D00020EA020000EBD3705EEA430E08BF20EA76
:1006E000D37070BD94F0000F0FD101F000464000B0
:1006F00041EB010111F4801F08BF013CF7D041EA32
:10070000060195F0000F18BF704703F00046520035
:1007100043EB030313F4801F08BF013DF7D043EA06
:100720000603704794EA0C0F0CEA135518BF95EABC
:100730000C0F0CD050EA410618BF52EA4306D1D143
:1007400081EA030101F000414FF0000070BD50EA62
:10075000410606BF1046194652EA430619D094EAEC
:100760000C0F02D150EA013613D195EA0C0F05D1D6
:1007700052EA03361CBF104619460AD181EA03012A
:1007800001F0004141F0FE4141F470014FF00000E2
:1007900070BD41F0FE4141F4780170BD70B54FF07D
:1007A000FF0C4CF4E06C1CEA11541DBF1CEA1355FD
:1007B00094EA0C0F95EA0C0F00F0A7F8A4EB0504DF
:1007C00081EA030E52EA03354FEA013100F08880D6
:1007D0004FEA03334FF0805545EA131343EA12639F
:1007E0004FEA022245EA111545EA10654FEA002654
:1007F0000EF000419D4208BF964244F1FD0404F50D
:10080000407402D25B084FEA3202B61A65EB030568
:100810005B084FEA32024FF480104FF4002CB6EB25
:10082000020E75EB030E22BFB61A754640EA0C00A5
:100830005B084FEA3202B6EB020E75EB030E22BFE5
:10084000B61A754640EA5C005B084FEA3202B6EB26
:10085000020E75EB030E22BFB61A754640EA9C00E5
:100860005B084FEA3202B6EB020E75EB030E22BFB5
:10087000B61A754640EADC0055EA060E18D04FEA73
:10088000051545EA16754FEA06164FEAC30343EA13
:1008900052734FEAC2025FEA1C1CC0D111F4801FE0
:1008A0000BD141EA00014FF000004FF0004CB6E7D9
:1008B00011F4801F04BF01430020B4F1FD0C88BF78
:1008C000BCF5E06F3FF6AFAEB5EB030C04BFB6EB83
:1008D000020C5FEA500C50F1000041EB045170BD76
:1008E0000EF0004E4EEA113114EB5C04C2BFD4EBA3
:1008F0000C0541EA045170BD41F480114FF0000E27
:10090000013C90E645EA060E8DE60CEA135594EAA2
:100910000C0F08BF95EA0C0F3FF43BAF94EA0C0FA5
:100920000AD150EA01347FF434AF95EA0C0F7FF41A
:1009300025AF104619462CE795EA0C0F06D152EA6E
:1009400003353FF4FDAE1046194622E750EA410652
:1009500018BF52EA43067FF4C5AE50EA41047FF463
:100960000DAF52EA43057FF4EBAE12E7034613F8EE
:10097000012B002AFBD1181A013870470000000033
:1009800001F0FF01102A2BDB10F0070F08D010F840
:10099000013B013A8B422DD010F0070F42B3F6D144
:1009A000F0B441EA012141EA014122F007047FF05D
:1009B00000070023F0E80256083C85EA010586EAB4
:1009C000010685FA47F5A3FA87F586FA47F6A5FAF0
:1009D00087F68EB9EED1F0BC01F0FF0102F00702FC
:1009E00032B110F8013B013A83EA010313B1F8D1A7
:1009F0000020704701387047002D06BF3546033888
:100A0000073815F0010F07D1013015F4807F02BFC0
:100A1000013015F4C03F0130F0BC0138704700BF11
:100A20004FF0FF3C06E000BF4FF0010C02E000BFBA
:100A30004FF0010C4DF804CD4FEA410C7FEA6C5C9D
:100A40004FEA430C18BF7FEA6C5C1BD001B050EA40
:100A5000410C0CBF52EA430C91EA030F02BF90EA2B
:100A6000020F0020704710F1000F91EA030F58BFEA
:100A7000994208BF90422CBFD8176FEAE37040F04C
:100A8000010070474FEA410C7FEA6C5C02D150EAEA
:100A9000013C07D14FEA430C7FEA6C5CD6D152EAA5
:100AA000033CD3D05DF8040B704700BF844610466A
:100AB00062468C461946634600E000BF01B5FFF769
:100AC000B7FF002848BF10F1000F01BD4DF808ED39
:100AD000FFF7F4FF0CBF012000205DF808FB00BF0A
:100AE0004DF808EDFFF7EAFF34BF012000205DF864
:100AF00008FB00BF4DF808EDFFF7E0FF94BF0120B1
:100B000000205DF808FB00BF4DF808EDFFF7CEFFB1
:100B100094BF012000205DF808FB00BF4DF808EDF0
:100B2000FFF7C4FF34BF012000205DF808FB00BFC1
:100B30004FEA410C7FEA6C5C02D150EA013C0AD1D9
:100B40004FEA430C7FEA6C5C02D152EA033C02D1CB
:100B50004FF0000070474FF0010070474FEA41022C
:100B600012F5001215D211D56FF47873B3EB6252FF
:100B700012D94FEAC12343F0004343EA505311F026
:100B8000004F23FA02F018BF404270474FF00000B8
:100B9000704750EA013005D111F0004008BF6FF0F6
:100BA000004070474FF00000704700BF80B500AFB5
:100BB00000F05AFC0121012000F056FD00BF00F0BA
:100BC000B1FC0346002BFAD001223B21022000F0A9
:100BD00003FE002000F078FF0121022000F044FD18
:100BE00000BF192000F076FC0346012BF9D100204C
:100BF00000F08EFD042000F0B7FD042000F09EFD03
:100C0000012000F045FF022000F034FE00BF00F09C
:100C100047FE0346022BFAD1002000F039FF01F015
:100C20000DFB00BF80BD80B400AF00BFBD465DF8C6
:100C3000047B704780B400AFFEE780B400AFFEE7EE
:100C400080B400AFFEE780B400AFFEE780B400AF31
:100C500000BFBD465DF8047B704780B400AF00BFA5
:100C6000BD465DF8047B704780B400AF00BFBD4651
:100C70005DF8047B704780B400AF00BFBD465DF8EF
:100C8000047B704780B500AF052001F08DFC01208A
:100C900001F06AF80121094801F03AF90346012BF5
:100CA0000AD1074B1B78042B03D1054B01221A7084
:100CB00002E0034B04221A7000BF80BD000801400F
:100CC0000000002080B500AFFFF7DCFF00BF80BD53
:100CD00080B584B000AF78600121164800F047FC71
:100CE0000121154800F043FC07F10803184601F004
:100CF000F5F80823BB734FF40073BB6007F10803DA
:100D000019460E4801F04EF80023002279680C487D
:100D100001F06AF901210A4801F0EBF901210848C4
:100D200001F0D2F9074802F0C3F900BF1037BD4601
:100D300080BD00BF0E00180002001800000801402E
:100D400000380140C052000880B586B000AF0121D4
:100D50004FF4A01000F00BFC234800F0CBFE3B1D2D
:100D6000184600F077FF0123FB810023BB811F4B56
:100D7000BB600123FB7400237B741D4B7B6001234C
:100D8000BB7400233B7402237B7501233B753B1D21
:100D90001946154800F086FF0121134800F000FFB6
:100DA0007B681946134802F0FDF8BB6819461248E3
:100DB00002F0F8F80D49114802F0F4F8BB681A4641
:100DC0000A4B9A4206D10E4802F072F9032001F054
:100DD00037FC02E00B4802F06BF90B4802F068F9AF
:100DE00000BF1837BD4680BD080002401802002031
:100DF0004C240140D8520008F05200080853000863
:100E00002C530008485300088853000880B582B06E
:100E100000AF0121264800F0AAFB002000F0BAFC38
:100E2000244800F0F5F8002000F042F93B1D184678
:100E300000F054F900233B7101237B710023BB7147
:100E40000123FB713B1D19461A4800F05DF9072389
:100E500001221021174800F0E7F901220721154867
:100E600000F09EFA0121134800F083F9012000F000
:100E7000CFFA01210F4800F005F90E4800F08EF975
:100E800000BF0C4800F099F90346002BF9D109483E
:100E900000F0A7F900BF074800F0B2F90346002BA5
:100EA000F9D1054802F004F900BF0837BD4680BDFE
:100EB00009001800002401409C53000800000000B5
:100EC00080B500AFFFF772FE032001F061F801F07A
:100ED0008DFA002001F0FAFA012001F0F7FA022061
:100EE00001F0F4FA4FF4E130FFF7F2FEFFF72CFFC8
:100EF000FFF78CFF3E4802F0DBF801213D4800F08F
:100F00009DFA022001F09CFB002001F003FB02206F
:100F100000F05CFE03461946374802F043F800BF74
:100F2000022000F053FE0346002BF9D0022000F00F
:100F300075FE022000F04AFE034619462E4802F0D4
:100F400031F8012001F07CFB002001F0E3FA0120E0
:100F500001F0E0FA294B1B889BB21946284802F0A1
:100F600021F8264B1B889BB21846FFF773FA1AA389
:100F7000D3E90023FFF7E8FA02460B46104619466C
:100F80004FF000021F4BFFF709FC02460B4614A16D
:100F9000D1E90001FFF720F902460B461046194639
:100FA00011A3D3E90023FFF7F9FB02460B461046D5
:100FB00019464FF00002144BFFF710F902460B469A
:100FC000124801F0EFFF012001F03AFB012001F08F
:100FD000A1FA99E7AFF300806666666666660A4026
:100FE000295C8FC2F528F43F33E197FA795371BF3A
:100FF000B853000800240140E05300081802002004
:10100000F85300080000B040000039400C540008BC
:1010100080B582B000AF78607B68144A934208D1F3
:101020000121134800F0E1FA0021114800F0DDFA37
:1010300018E07B680F4A934208D101210E4800F066
:10104000D4FA00210C4800F0D0FA0BE07B680B4A80
:10105000934207D101210A4800F0C7FA002108484D
:1010600000F0C3FA00BF0837BD4680BD0024014030
:1010700009000C00002801400A000C00003C01405F
:101080000F000C0080B483B000AF78600B46FB709B
:10109000FB7803F00103D9B27A68936861F3000327
:1010A000936000BF0C37BD465DF8047B70470000BD
:1010B00080B483B000AF0346FB71074AFB7903F0AD
:1010C0000F03D9B2536861F31343536000BF0C3769
:1010D000BD465DF8047B70470024014080B483B0B6
:1010E00000AF78607B6800221A707B6800225A701B
:1010F0007B6800229A707B680122DA7000BF0C378F
:10110000BD465DF8047B704780B483B000AF786063
:1011100039603B681B7803F00103D9B27A685368E1
:1011200061F3082353603B685B7803F00103D9B295
:101130007A68936861F3410393603B689B7803F09E
:101140000103D9B27A68936861F3CB2393603B685B
:10115000DB78013BDBB203F00F03D9B27A68D36AC4
:1011600061F31753D36200BF0C37BD465DF8047BB3
:10117000704780B483B000AF78600B46FB70FB789B
:1011800003F00103D9B27A68936861F3082393608E
:1011900000BF0C37BD465DF8047B704780B483B058
:1011A00000AF78607A68936843F00803936000BFEB
:1011B0000C37BD465DF8047B704780B483B000AF48
:1011C00078607B689B68C3F3C003DBB2002B01D05F
:1011D000012300E0002318460C37BD465DF8047B70
:1011E000704780B483B000AF78607A68936843F04A
:1011F0000403936000BF0C37BD465DF8047B704765
:1012000080B483B000AF78607B689B68C3F38003D1
:10121000DBB2002B01D0012300E0002318460C377D
:10122000BD465DF8047B704780B485B000AF786040
:10123000084611461A460346FB700B46BB70134620
:101240007B70FB78092B1DD87B681B69FB60FA78E3
:1012500013465B001344072202FA03F3DB431A46EA
:10126000FB681340FB607978FA7813465B001344FF
:1012700001FA03F31A46FB681343FB607B68FA68C4
:101280001A6120E07B68DB68FB60FB78A3F10A024F
:1012900013465B001344072202FA03F3DB431A46AA
:1012A000FB681340FB607978FB78A3F10A021346D0
:1012B0005B00134401FA03F31A46FB681343FB6017
:1012C0007B68FA68DA60BB780C2B21D97B68DB6A13
:1012D000FB60BB78A3F10D0213469B0013441F2251
:1012E00002FA03F3DB431A46FB681340FB60F9780C
:1012F000BB78A3F10D0213469B00134401FA03F3DC
:101300001A46FB681343FB607B68FA68DA6241E0C7
:10131000BB78062B1FD97B681B6BFB60BB78DA1F81
:1013200013469B0013441F2202FA03F3DB431A46C1
:10133000FB681340FB60F978BB78DA1F13469B000B
:10134000134401FA03F31A46FB681343FB607B68FE
:10135000FA681A631EE07B685B6BFB60BB785A1E01
:1013600013469B0013441F2202FA03F3DB431A4681
:10137000FB681340FB60F978BB785A1E13469B004C
:10138000134401FA03F31A46FB681343FB607B68BE
:10139000FA685A6300BF1437BD465DF8047B704796
:1013A00080B483B000AF78600B46FB701346BB700F
:1013B000FB78072B0ED97A68936843F0007393602B
:1013C000FB7803F00703D9B27A68936861F353435B
:1013D00093600DE07A6893686FF359639360FB78CC
:1013E00003F00703D9B27A68936861F353439360BB
:1013F000BB7803F00103D9B27A68936861F31453A0
:10140000936000BF0C37BD465DF8047B7047000059
:1014100080B483B000AF0346FB71074AFB7903F049
:101420000103D9B2936861F3D753936000BF0C37BF
:10143000BD465DF8047B70470024014080B483B052
:1014400000AF78600B46FB70FB7803F00103D9B264
:101450007A68936861F39653936000BF0C37BD467A
:101460005DF8047B7047000080B400AF184A136831
:1014700043F00103136000BF154B1B68C3F3400327
:10148000DBB2012BF8D1124A53686FF301035360AA
:1014900000BF0F4B5B68C3F38103DBB2002BF8D1B5
:1014A0000B4B1B680A4A23F0867323F480331360C6
:1014B000074B00225A60064B00221A63044B4FF47C
:1014C0001F029A6000BFBD465DF8047B704700BFF5
:1014D0000010024080B485B000AF78600023FB7339
:1014E0007B681B0C03F1804303F504331A687B68A7
:1014F00003F01F03012101FA03F31A407B6803F094
:101500001F03012101FA03F39A4202D00023FB7367
:1015100001E00123FB73FB7B18461437BD465DF8E1
:10152000047B704780B582B000AF00237B6000234E
:10153000FB7002E07B6801337B601120FFF7CAFF7C
:101540000346012B03D07B68B3F5405FF2D3112033
:10155000FFF7C0FF0346012B02D00023FB7001E020
:101560000123FB70FB7818460837BD4680BD80B468
:1015700083B000AF78600B46FB70FB78012B16D16F
:101580007B681B0C03F1804303F5043319687B6807
:1015900003F01F0301229A407B681B0C03F1804378
:1015A00003F50433184641EA0203036017E07B6841
:1015B0001B0C03F1804303F5043319687B6803F0C7
:1015C0001F03012202FA03F3DA437B681B0C03F1C9
:1015D000804303F50433184601EA0203036000BFA9
:1015E0000C37BD465DF8047B704780B483B000AF14
:1015F00078600B46FB70FB78012B16D17B681B0CC7
:1016000003F1804303F5043319687B6803F01F037B
:1016100001229A407B681B0C03F1804303F50433DD
:10162000184641EA0203036017E07B681B0C03F1D4
:10163000804303F5043319687B6803F01F0301221C
:1016400002FA03F3DA437B681B0C03F1804303F5D2
:101650000433184601EA0203036000BF0C37BD469D
:101660005DF8047B7047000080B483B000AF034690
:101670000A46FB711346BB71FB79042B3ED801A2CD
:1016800052F823F099160008AD160008C11600089C
:10169000D5160008E91600081C4ABB7903F00103BF
:1016A000D9B2136861F30003136028E0174ABB79CD
:1016B00003F00103D9B2136861F3104313601EE015
:1016C000124ABB7903F00103D9B2136861F31863BE
:1016D000136014E00D4ABB7903F00103D9B2136A19
:1016E00061F3000313620AE0084ABB7903F00103C7
:1016F000D9B2536A61F30003536200E000BF00BF38
:101700000C37BD465DF8047B704700BF00100240F7
:1017100080B483B000AF0346FB71074AFB7903F046
:101720000F03D9B2536861F30713536000BF0C373E
:10173000BD465DF8047B70470010024080B483B062
:1017400000AF0346FB71074AFB7903F00703D9B2E8
:10175000536861F30A23536000BF0C37BD465DF840
:10176000047B70470010024080B483B000AF034692
:10177000FB71074AFB7903F00703D9B2536861F3A1
:10178000CD23536000BF0C37BD465DF8047B704726
:101790000010024080B483B000AF0346FB710D4AD5
:1017A000FB7903F00303D9B2536861F38F335360BD
:1017B000FB799B08DBB2074A03F00103D9B25368F7
:1017C00061F31C73536000BF0C37BD465DF8047BAA
:1017D000704700BF0010024080B483B000AF0346E2
:1017E000FB710B46BB7113467B71FB79002B0AD151
:1017F0001F4A53686FF3104353601D4A136B43F045
:101800000073136312E01A4A536843F48033536041
:10181000FB79012B05D1164A53686FF3514353608E
:1018200004E0134A536843F400335360104ABB7911
:1018300003F00F03D9B2536861F395435360BB794A
:101840001B110B4A03F00303D9B2536861F35E73B3
:101850005360074A7B7903F00103D9B2536861F3FF
:10186000DF73536000BF0C37BD465DF8047B7047E3
:101870000010024080B483B000AF0346FB71074AFA
:10188000FB7903F00303D9B2536861F3010353609A
:1018900000BF0C37BD465DF8047B70470010024066
:1018A00080B400AF044B5B68C3F38103DBB218461E
:1018B000BD465DF8047B70470010024080B58AB0D9
:1018C00000AF786000233B6200237B620023FB6152
:1018D0000023BB6100237B6100233B61FFF7E0FF36
:1018E0000346FB73FB7B022B20D0022B69DC002B11
:1018F00002D0012B16D064E05D4B5B6DC3F3402337
:10190000DBB2002B0AD05A4B1B6BC3F34063DBB234
:10191000002B03D07B68574A1A6056E07B68564A12
:101920001A6052E07B68544A1A604EE0504B5B6884
:10193000C3F30043DBB2BB614D4B5B68C3F383432E
:10194000DBB27B624A4B5B68C3F34173DBB2FB6182
:10195000FB69002B02D17B6A0F2B06D1FB691A01B0
:101960007B6A134401337B6202E07B6A02337B6251
:10197000BB69002B06D17B6A404A03FB02F27B68FD
:101980001A6022E03A4B5B68C3F34043DBB2002BA2
:1019900010D0374B5B6DC3F30133DBB23B623B6A64
:1019A0000233354AB2FBF3F37A6A03FB02F27B6837
:1019B0001A600AE07B6A304A03FB02F27B681A6015
:1019C00003E07B682C4A1A6000BF294B5B68C3F3B5
:1019D0000313DBB27B612A4A7B6913441B783B61AA
:1019E0007B681A683B69DA407B685A60204B5B6809
:1019F000C3F30223DBB27B61224A7B6913441B7869
:101A00003B617B685A683B69DA407B68DA60184B57
:101A10005B68C3F3C223DBB27B611B4A7B6913445F
:101A20001B783B617B685A683B69DA407B689A6047
:101A30000F4B5B68C3F30073DBB27B617B699B0078
:101A40000B4A5268C2F38132D2B213437B610F4A10
:101A50007B6913441B783B617B689A683B69B2FBE6
:101A6000F3F27B681A6100BF2837BD4680BD00BF16
:101A700000100240006CDC0200127A0000093D00F8
:101A800030540008405400084854000850540008DE
:101A900080B483B000AF0346FB71FB79012B05D105
:101AA000084A536D43F03003536504E0054A536D13
:101AB0006FF30513536500BF0C37BD465DF8047B1B
:101AC000704700BF0010024080B483B000AF0346EF
:101AD000FB71074AFB7903F00303D9B2536D61F33D
:101AE0000D33536500BF0C37BD465DF8047B70476E
:101AF0000010024080B485B000AF78600023FB6026
:101B00007A6813686FF3000313607B6800221A6021
:101B10007B6800225A607B6800229A607B68002202
:101B2000DA607B68FB60FA6840F2FF431340B3F56C
:101B3000816F11D2174B5B68FA68D2B2083A164926
:101B4000A1FB0212120992000F2101FA02F21146C2
:101B5000104A0B43536017E0FA6840F2FF4313400A
:101B6000B3F5916F10D20D4B5B68FA68D2B2083AA8
:101B70000949A1FB0212120992000F2101FA02F297
:101B80001146064A0B43536000BF1437BD465DF84B
:101B9000047B704700000240CDCCCCCC0004024056
:101BA00080B483B000AF78600B46FB70FB7803F025
:101BB0000103D9B27A68136861F30003136000BFB0
:101BC0000C37BD465DF8047B7047000080B485B0DB
:101BD00000AF78600023FB730023BB607B68B3F128
:101BE000805F03D90B4B1B68BB6002E00A4B1B688C
:101BF000BB60BA687B681340002B02D00123FB73E3
:101C000001E00023FB73FB7B18461437BD465DF8EB
:101C1000047B7047000402400000024080B483B09F
:101C200000AF78607B68B3F1805F05D9074A7B68B5
:101C300023F07043536002E0054A7B68536000BFA5
:101C40000C37BD465DF8047B704700BF00040240BE
:101C50000000024080B483B000AF78607B6800224F
:101C60001A607B6800225A607B6800221A817B68B8
:101C700000225A817B6800221A737B6800225A7303
:101C80007B6800229A737B680022DA737B680022EB
:101C90001A747B6800225A7400BF0C37BD465DF889
:101CA000047B704780B483B000AF786039607B6894
:101CB0001A684BF6EF7313407A6813607B681B68F1
:101CC0003A6812891A437B681A603B685B7C03F0B0
:101CD0000303D9B27A68136861F30D3313603B686C
:101CE000DB7B03F00303D9B27A68136861F38B23BB
:101CF00013603B689B7B03F00303D9B27A681368D7
:101D000061F3092313603B685B7B03F00103D9B2E5
:101D10007A68136861F3C71313603B681B7B03F099
:101D20000103D9B27A68136861F3861313603B68C4
:101D30001B7C03F00103D9B27A68136861F3451381
:101D400013603B685B891A467B685A603B681A6877
:101D50007B689A603B685A687B68DA6000BF0C3722
:101D6000BD465DF8047B704780B483B000AF7860F7
:101D70000B4B1A697B6813407A689A4206D1084A6D
:101D80007B685361064A7B68536102E0044A7B68C2
:101D9000536100BF0C37BD465DF8047B704700BF40
:101DA0000004014080B485B000AF786039603B68C2
:101DB0001B683B813B689B79032B02D100237B810D
:101DC00030E03B689B79002B15D13B685B799BB277
:101DD00003F00F037B813B685B79182B03D13A89B1
:101DE0007B681A611EE03B685B79282B1AD13A891F
:101DF0007B685A6116E03B689B791BB203F00803CD
:101E00001AB23B681B791BB203F004031BB21343E5
:101E10001AB23B68DB791BB203F003031BB2134316
:101E20001BB27B813B89DBB2002B25D00023FB60FA
:101E30001FE03A89FB6842FA03F303F00103002B29
:101E400014D07B681B68FA6892000F2101FA02F235
:101E5000D2431A407B681A607B681B687989FA68EC
:101E6000920001FA02F21A437B681A60FB680133A0
:101E7000FB60FB68072BDCD93B89FF2B28D93B890A
:101E80001B0A3B810023FB601FE03A89FB6842FA92
:101E900003F303F00103002B14D07B685B68FA683E
:101EA00092000F2101FA02F2D2431A407B685A6075
:101EB0007B685B687989FA68920001FA02F21A433A
:101EC0007B685A60FB680133FB60FB68072BDCD939
:101ED00000BF1437BD465DF8047B704780B483B003
:101EE00000AF78607B684FF6FF721A607B68002253
:101EF0009A717B6800221A717B6804225A717B6890
:101F00000122DA7100BF0C37BD465DF8047B7047D3
:101F100080B485B000AF78600B467B800023FB73F4
:101F20007A8879887B689B680B409A4202D00023AC
:101F3000FB7301E00123FB73FB7B18461437BD469E
:101F40005DF8047B7047000080B485B000AF786016
:101F50007B6803F00703FB600C4BDB68BB60BA686F
:101F60004FF6FF031340BB60FB681A02BB681343C4
:101F700043F0BF6343F40033BB60044ABB68D360E3
:101F800000BF1437BD465DF8047B704700ED00E0EC
:101F900080B582B000AF0346FB71FB791846FFF7AE
:101FA000D3FF00BF0837BD4680BD000080B483B0BA
:101FB00000AF0346FB71FB79042B06D1094B1B686C
:101FC000084A43F00403136005E0064B1B68054A0A
:101FD00023F00403136000BF0C37BD465DF8047B9B
:101FE000704700BF10E000E080B58CB000AFF86033
:101FF000B96011461A460B46FB711346BB7107F1D7
:1020000014031846FFF75AFCFB682A4A93420BD088
:10201000FB68294A934207D0FB68284A934203D0C1
:10202000FB68274A934202D1FB69FB6201E03B6AED
:10203000FB62FA6A13469B0013445B001A46BB68B6
:10204000B2FBF3F3BB62B96A1E4BA3FB0123DA08B0
:1020500013469B0013445B00CA1A042A06D8BB6AC5
:10206000184AA2FB0323DB08BB6206E0BB6A154AE1
:10207000A2FB0323DB080133BB62BB6A99B2FA6897
:10208000936861F30F039360FB7903F00103D9B206
:10209000FA68D36861F30C33D360BB7903F00303B0
:1020A000D9B2FA68136961F30D33136100BF303799
:1020B000BD4680BD00380140006001400064014021
:1020C00000680140CDCCCCCC80B483B000AF786048
:1020D0000B46FB70FB7803F00103D9B27A68D36832
:1020E00061F34D33D36000BF0C37BD465DF8047B10
:1020F000704780B483B000AF78600B46FB70FB780C
:1021000003F00103D9B27A68D36861F3C303D360E3
:1021100000BF0C37BD465DF8047B704780B483B0C8
:1021200000AF78600B467B807B88C3F308027B6836
:102130005A6000BF0C37BD465DF8047B704780B421
:1021400083B000AF786039607B681A683B681340E1
:10215000002B01D0012300E0002318460C37BD46B8
:102160005DF8047B70470000002103E00B4B5B58D7
:10217000435004310A480B4B42189A42F6D30A4A9C
:1021800002E0002342F8043B084B9A42F9D300F0E6
:1021900011F800F071FAFEF793FE704794580008AA
:1021A00000000020FC010020FC010020380200207B
:1021B000FEE7000080B400AF1E4BD3F888301D4A04
:1021C00043F47003C2F888301B4A136843F00103DC
:1021D000136000BF184B1B68C3F34003DBB2012B35
:1021E000F8D1154A53686FF30103536000BF124BD7
:1021F0005B68C3F38103DBB2002BF8D10E4B1B6885
:102200000D4A23F0867323F4803313600A4B0022B7
:102210005A60094B00221A63074B4FF41F029A6061
:10222000044B4FF000629A6000BFBD465DF8047B2E
:10223000704700BF00ED00E00010024080B588B09C
:1022400000AF0023BB610023FB6100237B610023FF
:102250003B610023FB600023BB60FFF721FB0346CB
:10226000FB71FB79022B20D0022B69DC002B02D002
:10227000012B16D064E03F4B5B6DC3F34023DBB210
:10228000002B0AD03B4B1B6BC3F34063DBB2002B2C
:1022900003D0394B394A1A6056E0374B384A1A6036
:1022A00052E0354B364A1A604EE0324B5B68C3F35E
:1022B0000043DBB23B612F4B5B68C3F38343DBB26C
:1022C000FB612C4B5B68C3F34173DBB27B617B69C1
:1022D000002B02D1FB690F2B06D17B691A01FB6928
:1022E00013440133FB6102E0FB690233FB613B698C
:1022F000002B06D1FB69234A02FB03F31E4A13603D
:1023000022E01C4B5B68C3F34043DBB2002B10D0D0
:10231000184B5B6DC3F30133DBB2BB61BB690233A6
:10232000174AB2FBF3F3FA6902FB03F3124A136094
:102330000AE0FB69124A02FB03F30F4A136003E051
:102340000D4B0F4A1A6000BF0A4B5B68C3F30313BF
:10235000DBB2FB600C4AFB6813441B78BB60064B86
:102360001A68BB6822FA03F3034A136000BF2037E0
:10237000BD4680BD0010024004000020006CDC025D
:1023800000127A0000093D005854000880B586B05C
:1023900000AFF860B9607A6000237B611BE000BF8A
:1023A00080211148FFF7CBFE0346002BF8D0BB6815
:1023B0005A1CBA601B789BB219460B48FFF7AEFE59
:1023C00000BF40210848FFF7BAFE0346002BF8D0B3
:1023D0007B6901337B617A697B689A42DFDB7B68CA
:1023E00018461837BD4680BD0038014080B500AFA3
:1023F00000F0BAF8002000F035F8012000F032F8C3
:10240000022000F02FF8002000F060F8012000F01A
:102410005DF8022000F05AF800F002F800BF80BD1D
:1024200080B582B000AF01210C48FFF7A0F83B4611
:102430001846FFF753FD0123FB7100233B71002376
:10244000BB7101233B6028237B713B46194604483E
:10245000FFF7A8FC00BF0837BD4680BD020018008A
:102460000008014080B584B000AF0346FB71FB79E2
:10247000134A52F8233001211846FFF778F807F184
:1024800008031846FFF72AFD0123FB7300233B7363
:102490001023BB73FB790B4A32F81330BB60042363
:1024A0007B73FB79084A52F8233007F10802114682
:1024B0001846FFF777FC00BF1037BD4680BD00BF50
:1024C0001C000020140000200800002080B483B00D
:1024D00000AF0346FB71FB79022B10D8FB790B4A46
:1024E00032F81330002B0BD0FB79084A32F8131066
:1024F000FB79074A52F823300A461A6100E000BF10
:102500000C37BD465DF8047B704700BF1400002007
:102510000800002080B483B000AF0346FB71FB7954
:10252000022B16D8FB790E4A32F81330002B11D04B
:10253000FB790C4A52F82330DA68FB79084931F804
:1025400013301846FB79074951F823304240DA60CE
:1025500000E000BF0C37BD465DF8047B704700BF4C
:10256000140000200800002080B500AF0420FFF711
:102570001DFD094B1B68094AA2FB03239B0C084A5B
:102580001360074B1B684FF47A7202FB03F3054A92
:10259000136000BF80BD00BF0400002083DE1B432A
:1025A0001C0200202002002080B485B000AF03464A
:1025B000FB800023FB6035E0FB88322B0AD91E4BE1
:1025C0001B681E4A322101FB03F35360FB88323B38
:1025D000FB8008E0FB88184A1268184902FB03F3E5
:1025E0004B600023FB80154B00229A60134B1B6845
:1025F000124A43F001031360104B1B68FB60FB6839
:1026000003F00103002B04D0FB6803F48033002B9C
:10261000F2D00A4B1B68094A23F001031360074BF1
:1026200000229A60FB88002BC6D100BF00BF143780
:10263000BD465DF8047B70472002002010E000E0FA
:1026400080B584B000AF0346FB800023FB810AE025
:102650004FF4FA70FFF7A8FF4FF4FA70FFF7A4FFEA
:10266000FB890133FB81FA89FB889A42F0D300BFD2
:1026700000BF1037BD4680BD70B50D4D0D4C641BBD
:10268000A4100026A64209D10B4D0C4C02F00AFE04
:10269000641BA4100026A64205D170BD55F8043B6A
:1026A00098470136EEE755F8043B98470136F2E7C4
:1026B0008C5800088C5800088C5800089058000866
:1026C00002440346934200D1704703F8011BF9E727
:1026D0002DE9FF4755EC104B002D0E4619462B46B1
:1026E000BBBF05F100431D4600232D230B700D9B3E
:1026F000DDF830A0914623F02008BCBF22461446E6
:10270000B8F1460F05D0B8F1450F00D101360221CE
:1027100000E0032103AB019302AB009345EC104BA7
:102720005346324600F018FEB8F1470F074602D173
:1027300019F0010F22D0B8F1460F07EB060910D1AE
:102740003B78302B0AD10022002320462946FEF791
:10275000BDF918B9C6F10106CAF80060DAF8003010
:1027600099440022002320462946FEF7AFF908B11C
:10277000CDF80C903022039B4B4507D3039B0E9A58
:10278000DB1B3846136004B0BDE8F087591C039189
:102790001A70F0E7F7B503460029B8BF494203F8BD
:1027A000022BB4BF2D222B22092942702ADD0DF104
:1027B0000704A4460A27A6460A4691FBF7F607FB3C
:1027C00016153035632A04F1FF340EF8015C3146EA
:1027D000F1DC3031AEF1020504F8011C441C29463D
:1027E00061450AD30DF10902A2EB0E02654588BFCF
:1027F00000221344181A03B0F0BD11F8012B04F89D
:10280000012FEDE7302330318370C170031DF1E7F4
:102810002DE9F04F2DED028B8DB00C46DDF8608078
:1028200016461F46054601F03DFDD0F800A0504673
:10283000FEF79CF800230A9323680593D8F800302C
:1028400094F818B0073323F0070303F10802C8F81F
:102850000020D3E90023C4E91223D4E9128929F026
:1028600000430793CDF8188008EE100A9F4BDDE96E
:1028700006014FF0FF32FEF75BF988BBDDE9060188
:102880009A4B4FF0FF32FEF735F948BB0022002388
:1028900040464946FEF724F910B12D2384F8433011
:1028A000934B9448BBF1470F94BF9846804603234F
:1028B0002361059B23F0040222604FF0000900977A
:1028C00033460BAA2146284600F0D8F9013040F0E3
:1028D00090804FF0FF300DB0BDEC028BBDE8F08F63
:1028E00042464B4640464946FEF722F940B14B4628
:1028F000002BBCBF2D2384F843307F487F4BD1E7AA
:1029000063680BF0DF0206925A1C3FD10623636016
:10291000059B616843F48062002303930AABCDE911
:1029200001B309AB49EC108B009322600DF1230336
:102930002846FFF7CDFE069B0999472B804608D114
:10294000C81C02DB6368994241DDABF1020B5FFA00
:102950008BFBBBF1650F20D801395A4604F15000BA
:102960000991FFF717FF0A9A1318012A814623617C
:1029700002DC2268D20701D5013323619DF82330A0
:10298000002B9CD02D2384F8433098E7069A472AE1
:10299000BED1002BBCD10123B9E7BBF1660F18D122
:1029A000002963680BDD216113B92268D00702D5C5
:1029B00001330B442361A1654FF00009DEE713B931
:1029C0002268D20701D50233F4E70123F2E74FF082
:1029D000670B0A9B994205DB23682161D807EAD57A
:1029E0004B1CE7E70029D4BFC1F1020201221344C6
:1029F000E0E723685A0507D4236942463146284652
:102A0000B84701302CD164E7BBF1650F40F2E0809C
:102A1000D4E9120100220023FEF758F8002834D030
:102A2000374A012331462846B84701303FF451AFB9
:102A3000DDE909239A4202DB2368D80710D518EE96
:102A4000103A524631462846B84701303FF441AF6C
:102A50004FF0000804F11A090A9B013B434509DCC9
:102A600023689B0700F10581E0680B9B9842B8BF83
:102A7000184630E701234A4631462846B847013018
:102A80003FF427AF08F10108E6E7099B002B39DC8A
:102A90001B4A012331462846B84701303FF419AF9D
:102AA000DDE90923134302D12368D907D8D518EEED
:102AB000103A524631462846B84701303FF409AF34
:102AC0004FF0000904F11A0A099B5B424B4501DCF7
:102AD0000A9B92E70123524631462846B847013007
:102AE0003FF4F7AE09F10109EEE700BFFFFFEF7F0A
:102AF0006C5400087054000878540008745400089E
:102B00007C5400080A9AA36D9A42A8BF1A46002A6C
:102B1000914637DC4FF0000B29EAE97904F11A02FB
:102B2000A36D0593A3EB09035B4533DCDDE90923C2
:102B30009A423BDB2368DA0738D40A9B059A099945
:102B40009A1AA3EB01099145A8BF9146B9F1000F6C
:102B500035DC4FF0000829EAE97904F11A0ADDE9C9
:102B600009239B1AA3EB090343457FF779AF0123A0
:102B7000524631462846B84701303FF4AAAE08F124
:102B80000108ECE71346314642462846B847013073
:102B9000C0D19EE60123314628460592B847013050
:102BA0003FF497AE059A0BF1010BB9E718EE103A16
:102BB000524631462846B8470130BED189E6059ACB
:102BC0004B46424431462846B8470130C1D180E6E1
:102BD0000A9A012A01DCDB0738D501234246314637
:102BE0002846B84701303FF474AE18EE103A52460A
:102BF00031462846B84701303FF46BAED4E91201A4
:102C000000220023FDF762FFD8B90A9B08F10102F8
:102C1000013B31462846B84701300ED159E6012321
:102C2000524631462846B84701303FF452AE08F1CB
:102C300001080A9B013B4345F1DC4B4604F150027D
:102C4000DCE64FF0000804F11A0AF2E701234246DD
:102C5000DFE701234A4631462846B84701303FF4B2
:102C600038AE08F10108E3680B995B1A4345F0DCC4
:102C7000FAE64FF0000804F11909F4E72DE9F047EE
:102C8000164699468A680B69DDF820809342B8BFE2
:102C90001346336091F8432007460C460AB10133CE
:102CA00033602368990642BF336802333360256876
:102CB00015F0060506D104F1190AE36832689B1A7B
:102CC000AB4226DC94F84320131E226818BF012370
:102CD00092062BD404F1430249463846C0470130DE
:102CE0001ED02368E568326803F00603042B08BF92
:102CF000AD1AA36822690CBF25EAE5750025934249
:102D0000C4BF9B1AED1800261A34B5421AD1002010
:102D100008E00123524649463846C047013003D1F6
:102D20004FF0FF30BDE8F0870135C6E7E1185A1CC7
:102D3000302081F84300224494F8451082F8431073
:102D40000233C7E70123224649463846C0470130CF
:102D5000E6D00136D9E700002DE9FF470F7E0C9D34
:102D6000782F914680460C469A4601F1430207D8D7
:102D7000622F0AD8002F00F0D880582F00F0A380CF
:102D800004F1420584F842703AE0A7F16303152B81
:102D9000F6D801A151F823F0F12D0008052E000806
:102DA000812D0008812D0008812D0008812D00084B
:102DB000052E0008812D0008812D0008812D0008B6
:102DC000812D0008112F0008352E0008F32E000871
:102DD000812D0008812D0008332F0008812D000867
:102DE000352E0008812D0008812D0008FB2E0008DB
:102DF0002B681A1D1B682A6004F1420584F84230D2
:102E00000123A3E020682968060601F104030AD51E
:102E10000E682B60002E03DA2D23764284F84330AF
:102E20005E480A2319E00E682B6010F0400F18BFAF
:102E300036B2EFE72B682068191D2960010601D51D
:102E40001E6802E04606FBD51E8854486F2F0CBF53
:102E500008230A23002184F843106568A560002D2B
:102E6000A2BF216821F0040121600EB9002D4DD0D0
:102E70001546B6FBF3F103FB1167C75D05F8017D4D
:102E80003746BB420E46F4D9082B0BD12368DE0728
:102E900008D5236961689942DEBF302305F8013CFB
:102EA00005F1FF35521B2261CDF800A04B4603AA65
:102EB00021464046FFF7E2FE01304CD14FF0FF3093
:102EC00004B0BDE8F087354881F84570296823686B
:102ED00051F8046B29601D0614D5DF0744BF43F089
:102EE000200323601EB9236823F0200323601023EE
:102EF000B0E7236843F0200323607823284884F850
:102F00004530E3E7590648BFB6B2E6E71546BBE7EA
:102F10002B6826686169181D286035061B6801D575
:102F2000196002E07006FBD5198000232361154665
:102F3000BAE72B681A1D2A601D68626800212846BE
:102F4000FDF71EFD08B1401B60606368236100232C
:102F500084F84330A8E723692A4649464046D047CB
:102F60000130ABD023689B0713D4E068039B9842E1
:102F7000B8BF1846A4E70123324649464046D04729
:102F800001309BD00135E36803995B1AAB42F2DC58
:102F9000EBE7002504F11906F5E700BF7E540008B1
:102FA0008F5400080FB40A4B13B51C6824B1A369F1
:102FB00013B9204601F0D8F805AB049AA168019333
:102FC000204601F095FE02B0BDE8104004B0704705
:102FD0002C00002070B50E46054618B183690BB968
:102FE00001F0C2F8AB69AC6813B9284601F0BCF82F
:102FF0002C4B9C4220D16C68636EDB0705D4A389FF
:10300000980502D4A06D01F052F9A38919071DD5C6
:103010002369DBB1013EA36816F8011F013BA360E1
:1030200039BB002B38DA22460A21284600F048F83E
:10303000013011D00A2511E01B4B9C4201D1AC6834
:10304000DAE71A4B9C4208BFEC68D5E721462846D0
:1030500000F088F80028DDD04FF0FF35636EDA0706
:1030600005D4A3899B0502D4A06D01F021F928465F
:1030700070BD002B04DAA2699A4206DC0A2904D04A
:1030800023685A1C22601970C5E72246284600F0C2
:1030900017F80130BFD1DFE723680A255A1C2260E8
:1030A0001D70DBE77455000894550008545500085E
:1030B000024B01461868FFF78DBF00BF2C000020AF
:1030C000F8B50E461446054618B183690BB901F0F0
:1030D0004BF8214B9C422BD16C68A369A360A38958
:1030E0001A072FD523696BB323692068C01A636957
:1030F000F6B28342374604DC2146284600F0A0FFA2
:1031000030BBA368013BA36023685A1C22601E7079
:1031100063690130834204D0A389DB0706D50A2EF8
:1031200004D12146284600F08BFF88B93846F8BD07
:103130000A4B9C4201D1AC68CFE7094B9C4208BFC7
:10314000EC68CAE72146284600F00CF80028CBD0EE
:103150004FF0FF37EAE700BF7455000894550008A8
:1031600054550008324B70B51D6806460C4625B113
:10317000AB6913B9284600F0F7FF2E4B9C420FD1E4
:103180006C68A389B4F90C2019072CD4DD0611D47E
:103190000923336042F04003A3814FF0FF303EE04B
:1031A000254B9C4201D1AC68EBE7244B9C4208BF05
:1031B000EC68E6E7580712D5616B41B104F14403AE
:1031C000994202D0304601F089FC00236363A38951
:1031D00023F02403A3810023636023692360A38970
:1031E00043F00803A38123694BB9A38903F4207337
:1031F000B3F5007F03D02146304601F07FF8A08967
:10320000B4F90C2010F001030AD00023A360636915
:103210005B42A361236943B910F08000BAD170BD4D
:10322000810758BF6369A360F4E70020F7E700BF98
:103230002C000020745500089455000854550008CF
:103240002DE9F74F03690C69A3420746C0F281805C
:10325000013C01F1140800F1140505EB840301930E
:1032600058F8243055F8242001339A424FEA840B51
:1032700008EB8409B2FBF3F631D34FF0000E404661
:10328000AC46F24650F8042B93B206FB03E34FEA38
:10329000134E9BB2AAEB0303DCF800A0120C13FA46
:1032A0008AF306FB02E20093009B4FEA124E92B2B1
:1032B000C2EB1A4202EB2342BDF80030814543EADB
:1032C00002434CF8043B4FEA224ADBD255F80B305C
:1032D0002BB9019B043B9D421A462ED33C613846D4
:1032E00001F0E4FA002824DB013628464FF0000CF8
:1032F00058F8042BD0F800E093B2ACEB0303120CA7
:1033000013FA8EF3C2EB1E4202EB23429BB243EA56
:103310000243C14540F8043B4FEA224CE8D255F83D
:10332000242005EB840322B9043B9D421A460AD3AC
:103330003C61304603B0BDE8F08F1268043B002AC0
:10334000CCD1013CC7E71268043B002AF0D1013C14
:10335000EBE70020EEE700002DE9F04F2DED048BA8
:1033600057EC106B93B0456ADDF88080069110EE43
:1033700010AA044609920C93BB4675B9102000F0C0
:10338000FDFF0246606220B9A74BEA21A74801F081
:1033900045FEC0E901550560C560636A196851B111
:1033A0005A684A60012393408B60204601F03CF844
:1033B000636A00221A603B1EAABF002323F0004B61
:1033C000C8F800309A4BBCBF0122C8F8002033EA8D
:1033D0000B031BD10C9A42F20F731360CBF3130350
:1033E000334300F09285219B63B9924B22E0924BCC
:1033F00001930833219A1360019813B0BDEC048B3C
:10340000BDE8F08F8B4B01930333F3E700220023D9
:1034100050465946FDF75AFB4BEC19AB804658B164
:103420000C9A01231360219B002B00F06B858348CD
:103430001860431E0193DFE74BEC10AB10AA11A9F3
:10344000204601F0D9FACBF30A5508EE100A002DF8
:1034500000F0848019EE903AC3F3130343F07F57D2
:10346000564647F44017A5F2FF35CDF83880744B27
:10347000002230463946FCF7AFFE65A3D3E90023AE
:10348000FDF762F864A3D3E90023FCF7A7FE064624
:1034900028460F46FCF7EEFF61A3D3E90023FDF7B2
:1034A00053F802460B4630463946FCF797FE06466F
:1034B0000F46FDF753FB00220090002330463946AB
:1034C000FDF70EFB50B10098FCF7D4FF32463B46A7
:1034D000FDF7FCFA10B9009B013B0093009B162BF3
:1034E0005AD8009A574B03EBC203D3E9002351EC9F
:1034F000190BFDF7F5FA002850D0009B013B009313
:1035000000230B93109B5D1B6B1E059345BFC5F1FC
:1035100001030493002300234CBF05930493009BF5
:10352000002B3DDB059B009A0A9213440593002370
:103530000793069B092B00F28980052BC4BF043B2F
:103540000693069BA3F10203CCBF00250125032BA4
:1035500000F28780DFE803F02D3A3859DDE9105397
:103560001D4405F23243202BC1BFC3F1400305F2D5
:1035700012400BFA03F326FA00F0DABFC3F120037E
:1035800006FA03F01843FCF765FF01230646A1F194
:10359000F877013D0E936AE70123B2E70B90B1E79C
:1035A000049B009A9B1A04935342079300230A93A7
:1035B000BFE700230893099B002B55DC0123CDE9CD
:1035C00002331A4609920CE00123F3E70023099A1B
:1035D0000893009B134402930133012B0393B8BF5C
:1035E0000123606A00224260042202F114069E4216
:1035F00041683DD9204600F0D7FE019000283BD11C
:10360000114B02464FF4D571C0E60123DFE700BF3E
:1036100061436F63A787D23FB3C8608B288AC63FD8
:10362000FB799F501344D33FAD540008C4540008A5
:103630000000F07FA9540008A05400087D54000841
:103640000000F83F6056000842550008012500239D
:10365000069308954FF0FF33CDE902330022122381
:10366000B0E701230893F5E7099BCDE90233B8E7FA
:10367000013141605200B8E7636A019A1A60039B06
:103680000E2B00F29D80002D00F09A80009B002BF5
:1036900032DDB74A03F00F0302EBC303D3E900891D
:1036A000009BD8054FEA231716D5B24B51EC190BE6
:1036B000D3E90823FDF772F807F00F0782468B461F
:1036C0000325AC4E57B942464B4650465946FDF786
:1036D00065F882468B4628E00225F2E7F90708D50F
:1036E00040464946D6E90023FCF72EFF01358046C7
:1036F00089467F100836E5E700F09B80009B9D4FD0
:103700005E429B4B06F00F0203EBC203D3E900239A
:1037100051EC190BFCF718FF361182468B4600233B
:103720000225002E7AD1002BD3D10B9B002B00F069
:103730008280914B002250465946FDF7D1F900286E
:1037400079D0039B002B76D0029B002B36DD009BAB
:10375000504659465F1E0022884BFCF7F5FE029E3C
:1037600082468B4601352846FCF784FE52465B466E
:10377000FCF7EAFE824B0022FCF730FDD046D9462A
:103780008246A1F1507B002E58D17E4B002240464C
:103790004946FCF721FD52465B4680468946FDF7C7
:1037A000BDF9002840F0958252460BF10043404697
:1037B0004946FDF795F9002840F089825BEC19AB8A
:1037C000119B002BC0F24881009A0E2A00F344811D
:1037D000674B03EBC203D3E90089099B002B80F2FE
:1037E000D580039B002B00F3D18040F06F82654BA6
:1037F000002240464946FCF7A7FE52465B46FDF7CD
:1038000083F9039E3746002840F04582019D31230D
:1038100005F8013B009B0133009340E2F20705D518
:10382000D7E90023FCF790FE013501237610083715
:1038300077E7022579E7009F039E94E701994C4BB7
:1038400031440D91089903EBC60353E90223002983
:1038500043D04D490020FCF7A1FF52465B46FCF7E0
:10386000BBFC019D82468B4649464046FDF776F9F2
:103870000646FCF7FFFD02460B4640464946FCF76C
:10388000ABFC303605F8016B52465B4680468946F4
:10389000FDF726F9002863D142464B463649002001
:1038A000FCF79AFC52465B46FDF71AF9002840F0F7
:1038B000B5800D9B9D4281D0304B00225046594629
:1038C000FCF742FE2D4B82468B464046494600227D
:1038D000FCF73AFE80468946C6E750465946FCF753
:1038E00033FE0D9B019D0F9382468B464946404611
:1038F000FDF734F90646FCF7BDFD303602460B46AF
:1039000040464946FCF768FC05F8016B0D9B9D425B
:10391000804689464FF0000224D11B4B5046594641
:10392000FCF75CFC02460B4640464946FDF7F6F8BC
:10393000002873D152465B4613490020FCF74CFC2B
:1039400002460B4640464946FDF7CAF800283FF4B8
:1039500035AF0F9D6B1E0F9315F8013C302BF8D03F
:10396000009749E0054BFCF7EFFD80468946BDE72F
:1039700060560008385600080000F03F0000244060
:1039800000001C40000014400000E03F019D56462E
:103990005F4642464B4630463946FCF7FFFEFDF790
:1039A000DDF88246FCF766FD42464B46FCF7CCFD4F
:1039B00002460B46304639460AF13006FCF70CFC4D
:1039C00005F8016B019E039FAE1BB74202460B46F2
:1039D00035D1FCF703FC42464B4606460F46FDF741
:1039E0009DF8D0B942464B4630463946FDF76EF851
:1039F00010B11AF0010F10D1204618EE101A00F085
:103A000013FD002300982B700C9B01301860219B44
:103A1000002B3FF4F1AC1D60EEE4009F2B461D46E9
:103A200013F8012D392A06D1019A9A42F7D101994A
:103A3000302201370A701A7801321A7090E7A64BCB
:103A40000022FCF781FD0022002306460F46FDF709
:103A50003DF800289DD0CFE7089A002A00F0D780D3
:103A6000069A012A00F3BA800E9A002A00F0B2806A
:103A700003F23343079E049D049A1A440492059A64
:103A800001211A442046059200F086FD0746002DCC
:103A90000CDD059B002B09DDAB42049AA8BF2B4629
:103AA000D21A0492059AED1AD31A0593079B1BB3F9
:103AB000089B002B00F0AF80002E13DD3946324604
:103AC000204600F029FE18EE102A0146074620463F
:103AD00000F078FD18EE101A8046204600F0A4FC95
:103AE00008EE108A079B9A1B06D018EE101A204683
:103AF00000F012FE08EE100A0121204600F04CFDF5
:103B00000A9B002B064640F388801A460146204651
:103B100000F002FE069B012B064640F381804FF029
:103B20000008336906EB8303186900F0E5FCC0F177
:103B30002000059B184410F01F0000F09280C0F197
:103B40002003042B40F38A80C0F11C00049B034433
:103B50000493059B034405440593049B002B07DD58
:103B600018EE101A1A46204600F030FE08EE100A31
:103B7000059B002B05DD31461A46204600F026FE47
:103B800006460B9B002B6ED018EE100A314600F053
:103B90008DFE002867DA009B013B18EE101A009397
:103BA0000A220023204600F061FC089B08EE100A60
:103BB000002B00F0B181002339460A22204600F094
:103BC00055FC029B002B074600F38E80069B022BC0
:103BD00051DC89E0109BC3F136034BE7039B5E1E6B
:103BE000079BB342BFBF079B0796F21A0A9BB6BF5B
:103BF0009B189E1B0A93039BB8BF0026002BB7BFE0
:103C0000DDE90323DDE903359D1A002334E7079E30
:103C1000049D089F3BE7079A67E7069B012B18DC8A
:103C2000BAF1000F15D1CBF3130393B92BF0004376
:103C30001B0D1B0583B1049B01330493059B0133CA
:103C400005934FF001080A9B002B7FF46AAF012017
:103C50006FE74FF00008F6E79846F4E73FF47DAFD2
:103C600018461C3072E7039B002B37DC069B022BA7
:103C700034DD039B0293029B6BB93146052220463B
:103C800000F0F4FB0146064618EE100A00F00EFEA6
:103C900000283FF7BBAD099B019DDB4300934FF02C
:103CA00000083146204600F0BFFB002F3FF4A4AED1
:103CB000B8F1000F05D0B84503D04146204600F0CA
:103CC000B3FB3946204600F0AFFB95E600263746A9
:103CD000E1E70097374699E500002440089B002B58
:103CE00000F0CA80039B0293002D05DD39462A4669
:103CF000204600F06BFD0746B8F1000F5BD07968F5
:103D0000204600F051FB054628B9874B024640F299
:103D1000EA21FFF73BBB3A690232920007F10C013E
:103D20000C3000F033FB01222946204600F04EFD06
:103D3000019B03F10109DDE90123134405930AF016
:103D40000103B84604930746314618EE100AFFF700
:103D500077FA4146029000F1300A18EE100A00F09E
:103D6000A5FD3A4603903146204600F0BBFDC268EF
:103D700009F1FF3B054602BB014618EE100A00F0B0
:103D800095FD024629462046079200F04DFBDDE9ED
:103D9000063243EA0201049B0B434D460FD1BAF1B0
:103DA000390F2AD0039B002B02DD029B03F1310A5D
:103DB0008BF800A075E73846BAE70122E2E7039BDB
:103DC000002B04DB06990B4304990B4322D1002AF4
:103DD000EEDD18EE101A0122204600F0F7FC314605
:103DE00008EE100A00F062FD002803DCE0D11AF0B2
:103DF000010FDDD0BAF1390FD7D139238BF800305C
:103E00002B461D46013B15F8012C392A71D0013291
:103E10001A7046E7002A07DDBAF1390FEDD00AF132
:103E200001038BF800303CE7059B09F801AC99458C
:103E300047D018EE101A00230A22204600F016FB85
:103E4000B84508EE100A4FF000034FF00A02414651
:103E5000204606D100F00AFB8046074609F1010919
:103E600072E700F003FB3946804600230A22204611
:103E700000F0FCFA0746F1E7039B0293019D18EE60
:103E8000100A3146FFF7DCF900F1300A019B05F812
:103E900001ABEA1A029B934209DD18EE101A0023C7
:103EA0000A22204600F0E2FA08EE100AE7E7029B39
:103EB000002BC8BF1D46019BD8BF01251D444FF0F4
:103EC000000818EE101A0122204600F07FFC31464F
:103ED00008EE100A00F0EAFC002891DC02D11AF08A
:103EE000010F8DD12B461D4613F8012D302AFAD033
:103EF000D7E6019A9A4284D1009B01330093312383
:103F00001370CEE6094BFFF795BA219B002B7FF487
:103F10006EAA074BFFF78EBA029B002BAEDC069B06
:103F2000022B3FF7A8AEA9E7425500087C540008D1
:103F3000A05400088A892DE9F041054610070C4677
:103F400058D44B68002B05DC0B6C002B02DC0020E6
:103F5000BDE8F081E66A002EF9D0002312F4805209
:103F60002F682B6032D0606DA3895A0705D563682E
:103F7000C01A636B0BB1236CC01A00230246E66AB9
:103F8000216A2846B047431CA38906D129681D2908
:103F90002CD82A4ACA40D60728D500226260D90404
:103FA0002269226004D5421C01D12B6803B96065E7
:103FB000616B2F600029CAD004F14403994202D0FA
:103FC000284600F08BFD00206063C1E7216A0123D1
:103FD0002846B047411CC7D12B68002BC4D01D2BED
:103FE00001D0162B01D12F60B1E7A38943F0400324
:103FF000A381ADE70F69002FA9D093070E6808BF12
:104000004B690F6018BF0023A6EB07088B60B8F15F
:10401000000F9CDD216AA66A43463A462846B0470F
:10402000002806DCA38943F04003A3814FF0FF3052
:104030008EE70744A8EB0008E9E700BF0100402035
:1040400038B50B6905460C4613B90025284638BD1E
:1040500018B183690BB900F087F8144B9C421BD14F
:104060006C68B4F90C30002BEFD0626ED00704D42A
:10407000990502D4A06D00F01AF928462146FFF7F1
:1040800059FF636EDA070546E0D4A3899B05DDD4AA
:10409000A06D00F00DF9D9E7054B9C4201D1AC6849
:1040A000DFE7044B9C4208BFEC68DAE77455000870
:1040B0009455000854550008002310B50446C0E983
:1040C0000033C0E90433836081814366C281836128
:1040D000194608225C30FEF7F3FA054B6362054B84
:1040E000A362054BE362054B2462236310BD00BF4E
:1040F000714F0008934F0008CB4F0008EF4F0008A6
:10410000014900F0AFB800BF4140000870B5682217
:104110004D1E55430E4605F1740100F04BFD04465B
:1041200040B10021C0E900160C30A06005F1680222
:10413000FEF7C6FA204670BD014800F0B8B800BFCF
:1041400025020020014800F0B3B800BF250200207E
:10415000014800F0ACB800BF26020020014800F082
:10416000A7B800BF2602002010B50446FFF7F0FFF5
:10417000A3691BB1BDE81040FFF7F0BFC4E91233DB
:104180002365134B134A1B68A262A34204BF012399
:10419000A361204600F020F86060204600F01CF883
:1041A000A060204600F018F80022E060042160685A
:1041B000FFF782FFA06801220921FFF77DFFE06879
:1041C00002221221FFF778FF0123A361D2E700BF8B
:1041D0006854000801410008F8B50746FFF7ACFF36
:1041E0001E4B1E68B36913B93046FFF7BDFF483652
:1041F000D6E90134013B03D533680BB33668F7E7E2
:10420000B4F90C50D5B9164BE36004F1580065665B
:1042100000F04CF8FFF796FFC4E90155C4E90455D6
:104220002560A5610822294604F15C00FEF748FAE2
:10423000C4E90D55C4E912552046F8BD6834D9E7E4
:1042400004213846FFF762FF044630600028D5D1CC
:10425000FFF778FF0C233B60EEE700BF68540008CF
:104260000100FFFF2DE9F8430646884600F14804A7
:104270000027D4E90195B9F1010905D52468002C7E
:10428000F7D13846BDE8F883AB89012B07D9B5F9DA
:104290000E30013303D029463046C0470743683506
:1042A000E9E7000000487047800100207047704730
:1042B000704770B50E46B1F90E10002996B014463D
:1042C0001D4608DAB6F90C3000222A601A0610D40E
:1042D0004FF480630EE06A4600F0E0FE0028F1DB58
:1042E000019A02F47042A2F500535A425A412A60E0
:1042F000EEE740230020236016B070BD8B8973B5B4
:104300009D0706460C4607D504F147032360236149
:104310000123636102B070BD01AB6A46FFF7C9FFBC
:1043200000990546304600F045FC48B9B4F90C3018
:104330009A05EFD423F0030343F00203A381E3E7DC
:104340000D4BB362A389206043F08003A381009BDF
:104350006361019B20615BB1B4F90E10304600F03F
:10436000AFFE28B1A38923F0030343F00103A38127
:10437000A0890543A581CDE701410008024B014614
:10438000186800F017BC00BF2C0000200A449142BE
:1043900000F1FF3300D1704710B511F8014B03F85D
:1043A000014F9142F9D110BD70B5466A04460D46E1
:1043B00076B91020FFF7E2FF0246606220B9184B81
:1043C0001848662100F02AFEC0E901660660C66052
:1043D000666AF36883B1636ADB6853F82500B8B98D
:1043E000012101FA05F6721D9200204600F060FBE3
:1043F00060B1C0E901560EE021220421204600F000
:1044000057FB636AF060DB68002BE4D1002070BDCD
:10441000026843F825200023C0E90333F7E700BF13
:10442000AD540008B455000870B5466A05460C4600
:1044300076B91020FFF7A2FF0246686220B9094B47
:1044400009488A2100F0EAFDC0E901660660C660FD
:104450003CB16B6A6268DB6853F82210216043F854
:10446000224070BDAD540008B45500082DE9F0415C
:104470000D6907460C461E4601F1140C0020DCF8BD
:10448000003099B202FB01611E0C0B0C02FB0633DB
:1044900089B2013001EB034185424CF8041B4FEA1D
:1044A0001346ECDC0EB3A368AB4219DC61683846F6
:1044B0000131FFF779FF804628B902460C4B0D48C1
:1044C000B52100F0ABFD2269023204F10C0192002B
:1044D0000C30FFF75BFF21463846FFF7A5FF444647
:1044E00004EB850301355E6125612046BDE8F0815E
:1044F00042550008B4550008030C1B04D3B900044E
:10450000102310F07F4F04BF0002083310F0704FEB
:1045100004BF0001043310F0404F04BF8000023399
:10452000002805DB10F0804F03F1010308BF2023B2
:10453000184670470023E4E7036813F007020146BA
:104540000BD0DA0723D4980749BF5B089B080120EA
:104550000B605CBF0B600220704798B2A8B91B0CBF
:104560001020DAB20AB908301B0A1A0704BF1B0967
:1045700004309A0704BF9B080230DA0703D45B08B3
:1045800000F1010005D00B6070471046E9E70020FC
:10459000704720207047000010B50C460121FFF73E
:1045A00003FF024628B9054B05484FF4A07100F0FF
:1045B00035FD01234461036110BD00BF4255000871
:1045C000B45500082DE9F04F91460A69D9F810302A
:1045D0009A42B8BF0B460C46BCBF4C469946276969
:1045E000D9F810A0A368616807EB0A06B34285B04A
:1045F000B8BF0131FFF7D8FE30B90246444B4548F9
:1046000040F25D1100F00AFD00F1140505EB86088B
:104610002B460022434521D304F1140303EB870703
:1046200009F1140303EB8A0202923A1B153A22F0B5
:104630000302043204F115018F4238BF04220192B3
:10464000029A03939A420CD8002E03DD58F8043DD9
:10465000002B5AD0066105B0BDE8F08F43F8042B5B
:10466000D8E7B3F800A0BAF1000F24D004F1140E7B
:10467000A9464FF0000C5EF8042BD9F800101FFA81
:1046800082FB89B20AFB0B114FEA124BD9F80020CA
:1046900061444FEA124C0AFB0BC202EB114289B291
:1046A00041EA0241774549F8041B4FEA124CE2D82F
:1046B000019A45F802C0039AB2F802900433B9F1A6
:1046C000000F20D0296804F1140CAE464FF0000A08
:1046D000BCF800B0BEF8022009FB0B22924489B25C
:1046E00041EA0A414EF8041B5CF8042BBEF80010A6
:1046F000120C09FB021101EB1A4167454FEA114AFE
:10470000E6D8019AA95004359AE7013E9CE700BF1C
:1047100042550008B45500082DE9F843154612F03B
:10472000030206460F4607D0254C013A002354F8F1
:104730002220FFF79BFE0746AD103DD0746A7CB97E
:104740001020FFF71BFE0246706228B91D4B1E4861
:104750004FF4D77100F062FCC0E901440460C4600A
:10476000D6F82480D8F808404CB940F27121304680
:10477000FFF712FF0023C8F80800044603604FF05B
:104780000009EB070AD5394622463046FFF71AFFE3
:10479000394680463046FFF747FE47466D100BD03E
:1047A000206838B9224621463046FFF70BFF2060CB
:1047B000C0F800900446E4E73846BDE8F88300BF3F
:1047C00028570008AD540008B45500082DE9F047FB
:1047D0000C464968236903EB6218A36807469146B3
:1047E0004FEA621A08F10106B3420BDB3846FFF7C5
:1047F000DBFD054648B902462A4B2B4840F2D91149
:1048000000F00CFC01315B00EEE7002300F1140125
:1048100000F110021846534537DB20692AEAEA7A8C
:1048200004F1140319F01F0901EB8A0103EB800066
:104830002FD0C9F1200E8A464FF0000C1A6802FAF8
:1048400009F242EA0C024AF8042B53F8042B98426E
:1048500022FA0EFCF2D8031B153B23F003030433AA
:1048600004F11502904238BF042341F803C0BCF1A3
:10487000000F01D008F10206013E38462E612146A4
:10488000FFF7D2FD2846BDE8F08742F8040F013358
:10489000C1E7043953F8042B41F8042F9842F9D8A2
:1048A000EAE700BF42550008B455000830B5026978
:1048B0000C69121B0ED100F11403143103EB8400B8
:1048C00001EB840150F8045D51F8044DA54203D07A
:1048D00005D30122104630BD8342F3D3FAE74FF0EF
:1048E000FF32F7E72DE9F84F0C4606461146204601
:1048F0009046FFF7DBFF051E10D129463046FFF733
:1049000053FD30B93A4B024640F23221394800F0AB
:1049100085FB0123C0E90435BDE8F88FA4BF4346F9
:10492000A0463046D8F80410A6BF1C460025012535
:10493000FFF73AFD20B92E4B02464FF41071E5E720
:10494000D8F810702669C56004F1140908F114053F
:1049500000F1140E05EB870C09EB860608F1100236
:10496000F246002159F8043B52F804BF1FFA83F8BD
:1049700011FA8BF11B0CA1EB0808C3EB1B4303EBF3
:1049800028431FFA88F819144E4548EA03434AF8A9
:10499000043BE7D8331B153B23F0030304331534E2
:1049A000A64238BF04231D4473449E462E466645E6
:1049B0000ED30CF10302521B22F00302033DAC455F
:1049C00038BF00221A4452F8043D7BB10761A3E7C7
:1049D00056F8048B11FA88F2141404EB184492B2BE
:1049E00042EA04424EF8042B2114E0E7013FEAE7D3
:1049F00042550008B45500082DE9F74389460121C6
:104A000057EC106B9046FFF7CFFC044630B90246D6
:104A1000254B264840F20A3100F000FBC7F30A5547
:104A2000C7F3130335BB002E019328D068460096C8
:104A3000FFF782FD009900B3019AC0F1200302FA4A
:104A400003F30B43C24063610192019BA361002BFE
:104A500014BF022201222261D5B1A5F233450544DB
:104A6000C9F80050C0F13500C8F80000204603B076
:104A7000BDE8F08343F48013D5E76161E5E701A861
:104A8000FFF75AFD019B6361012222612030E3E7B9
:104A900004EB8203A0F23240C9F800001869FFF766
:104AA0002BFDC0EB4210DFE742550008B45500086B
:104AB00037B5A1FB02244CB91146019200F07AF8F7
:104AC000019A054630B9284603B030BD0C22026079
:104AD0000025F8E72146FDF7F3FDF4E737B5002997
:104AE00044D051F8043C0190002BA1F10404B8BF5C
:104AF000E41800F019FB1E4A0198136833B963608B
:104B0000146003B0BDE8304000F014BBA34208D9E4
:104B1000256861198B4201BF19685B6849192160DA
:104B2000EDE71A465B680BB1A342FAD91168551834
:104B3000A5420BD1246821445418A3421160E0D14E
:104B40001C685B68536021441160DAE702D90C23CA
:104B50000360D6E7256861198B4204BF19685B685A
:104B6000636004BF491921605460CAE703B030BDD7
:104B70002802002070B50E4E0C463168054611B96A
:104B800000F0E6F930602146284600F0E1F9431CC8
:104B90000AD0C41C24F00304A04207D0211A2846DE
:104BA00000F0D6F9013001D14FF0FF34204670BD3E
:104BB0002C0200202DE9F041CD1C25F0030508351D
:104BC0000C2D38BF0C25002D074601DBA94205D965
:104BD0000C233B6000263046BDE8F0812E4E00F0ED
:104BE000A3FA33681C4634BB29463846FFF7C2FF98
:104BF000431C04464DD134682646002E40D123681C
:104C00003146384604EB030800F0A2F980453AD15A
:104C1000216803356D1A25F0030508350C2D38BFC2
:104C20000C2529463846FFF7A5FF01302BD0236815
:104C30002B4423600EE02268521B1ED40B2A16D987
:104C40006119A342256018BF5960636808BF3160CD
:104C500062514B60384604F10B0600F06BFA26F007
:104C60000706231DF21AB6D09B1BA350B3E7626858
:104C7000A3420CBF32605A60ECE723466468B2E797
:104C800034467668B9E70C233B60384600F052FAA8
:104C9000A1E72560DEE700BF280200209368013B02
:104CA000002B10B4936008DA9469A34201DB0A294F
:104CB00003D15DF8044BFEF703BA1368581C10606B
:104CC000197008465DF8044B7047F8B506460F4664
:104CD0001446D518AC4201D1002007E014F8011B9E
:104CE0003A463046FFF7DAFF431CF3D1F8BD000027
:104CF0002DE9F04F0D469DB014469846064618B172
:104D000083690BB9FFF730FA894B9D421BD1756857
:104D10006B6ED90705D4AB899A0502D4A86DFFF74D
:104D2000C6FAAB891B0701D52B69EBB9294630467A
:104D3000FEF718FAC0B16B6EDC070ED54FF0FF30EE
:104D40001DB0BDE8F08F7B4B9D4201D1B568DFE718
:104D5000794B9D4208BFF568DAE7AB899805EDD439
:104D6000A86DFFF7A5FAE9E70023099320238DF842
:104D70002930CDF80C803023DFF8C0818DF82A303F
:104D80004FF0010923469A4613F8012B0AB1252A50
:104D9000F9D1BAEB040B0BD05B46224629463046CC
:104DA000FFF793FF013000F0AA80099A5A44099254
:104DB0009AF80030002B00F0A28000234FF0FF3261
:104DC000CDE905230AF1010A049307938DF85330C6
:104DD0001A935446052214F8011B5848FBF7D0FDDE
:104DE000049AD8B9D10644BF20238DF85330130755
:104DF00044BF2B238DF853309AF800302A2B15D05E
:104E0000079A544600204FF00A0C214611F8013B46
:104E1000303B092B4ED9B0B1079214E0A0EB080348
:104E200009FA03F313430493A246D2E7039B191D27
:104E30001B680391002BBBBF5B4242F00202079349
:104E40000793B8BF049223782E2B0CD163782A2BBA
:104E500035D1039B1A1D1B680392002BB8BF4FF07E
:104E6000FF3302340593DFF8E4A021780322504693
:104E7000FBF786FD40B14023A0EB0A0003FA00F0E7
:104E8000049B03430134049314F8011B2C488DF850
:104E900028100622FBF774FD00283FD0294B1BBBCE
:104EA000039B073323F0070308330393099B3B4419
:104EB000099367E70CFB02320C460120A5E70023AB
:104EC0000134059319464FF00A0C204610F8012BC7
:104ED000303A092A03D9002BC5D00591C3E70CFB52
:104EE000012104460123F0E703AB00932A46164B49
:104EF00004A93046FDF78CFC0746781CD6D16B6EB2
:104F0000D90705D4AB899A0502D4A86DFFF7D0F96B
:104F1000AB895B063FF512AF099811E703AB00932D
:104F20002A46094B04A93046FDF716FFE4E700BF07
:104F3000745500089455000854550008345700086B
:104F40003E57000811280008CB4C00083A570008CB
:104F500038B5064D0023044608462B6000F092F950
:104F6000431C02D12B6803B1236038BD30020020FE
:104F700010B50C46B1F90E1000F0E2F80028ABBFF6
:104F8000636DA3891B1823F48053ACBF6365A381B1
:104F900010BD2DE9F0411F468B89DB0505460C4607
:104FA000164605D5B1F90E100223002200F098F83C
:104FB000A389B4F90E1023F48053A38132463B46F3
:104FC0002846BDE8F04100F017B810B50C46B1F91D
:104FD0000E1000F085F8431CA38915BF606523F40B
:104FE000805343F48053A38118BFA38110BDB1F94E
:104FF0000E1000F031B8000038B5074D04460846E1
:10500000114600222A601A46FDF7C0F9431C02D15E
:105010002B6803B1236038BD300200201FB5144651
:105020001A46094B1B680546D8684CB1074B0091DE
:10503000CDE9013406492B4600F01EF800F09FF838
:10504000044B1C46F3E700BF2C0000204557000826
:10505000525700088057000838B5064D0023044613
:1050600008462B6000F0D6F8431C02D12B6803B130
:10507000236038BD300200200EB403B5014603ABF7
:10508000054853F8042B00680193FFF731FE02B086
:105090005DF804EB03B070472C00002038B5074DD5
:1050A00000230446084611462B6000F0BBF8431C61
:1050B00002D12B6803B1236038BD00BF300200204D
:1050C00038B5064D0023044608462B6000F0BAF8B8
:1050D000431C02D12B6803B1236038BD300200208D
:1050E00038B5074D04460846114600222A601A4684
:1050F00000F0B8F8431C02D12B6803B1236038BD1F
:105100003002002082B001B901A942B14BB113783D
:105110000B601278101E18BF012002B070471046B5
:10512000FBE76FF00100F8E70148FFF7C0B800BFE8
:10513000240200200148FFF7BBB800BF2402002072
:1051400038B5074D04460846114600222A601A4623
:1051500000F090F8431C02D12B6803B1236038BDE6
:105160003002002049B1FF2A85BF8A2303600A70FC
:105170004FF0FF3098BF012070470846704708B5D0
:10518000062000F02BF8012000F08AF81F2938B51E
:1051900004460D4604D9162303604FF0FF3038BD96
:1051A000426C12B152F821304BB9204600F030F871
:1051B0002A4601462046BDE8384000F017B8012BCA
:1051C0000AD0591C03D1162303600120E7E700240D
:1051D00042F82540284698470020E0E7024B014668
:1051E0001868FFF7D3BF00BF2C00002038B5074D6B
:1051F00000230446084611462B6000F02BF8431CA0
:1052000002D12B6803B1236038BD00BF30020020FB
:1052100000F010B8024B58221A604FF0FF30704770
:1052200030020020024B58221A604FF0FF307047C6
:1052300030020020024B58221A604FF0FF307047B6
:1052400030020020024B58221A600020704700BF35
:1052500030020020024B58221A604FF0FF30704796
:1052600030020020024B58221A604FF0FF30704786
:1052700030020020024B58221A604FF0FF30704776
:1052800030020020044A05491368002B08BF0B4672
:10529000184410601846704734020020380200207D
:1052A000FEE700BFF8B500BFF8BC08BC9E467047DB
:0C52B000F8B500BFF8BC08BC9E46704773
:1052C00055534152543120636F6E66696720666999
:1052D0006E6973680D000000646D615F66726F6DCA
:1052E0005F616464726573733A2025780D0A00006B
:1052F000646D615F746F5F616464726573733A209B
:1053000025780D0A0000000054656D7065726174A7
:105310007572652061646472657373207061726177
:105320006D657465723A2025780D0A00444D412060
:10533000746F2041444320636F6E66696720737504
:1053400063636573730D00004572726F723A204497
:105350004D41206973206E6F74206D6174636869BC
:105360006E67206164647265737373207769746813
:105370002041444320636F6E7461696E20706172D6
:10538000616D657465720D00444D413120636F6E2F
:105390006669672066696E6973680D004144433130
:1053A0005F4348414E313620636F6E666967206601
:1053B000696E6973680D0000494E5445524E414C68
:1053C0002054454D50455241545552452053454E69
:1053D000534F522041435449564154450D0000005B
:1053E000444D415F464454315F464C41473A202585
:1053F00064200D0A000000004144435F56414C55B3
:1054000045203D2025780D0A00000000696E746576
:10541000726E616C5F74656D7065726174757265D2
:10542000203D20256C662064656720430D0A00003E
:105430000000000000000000010203040607080944
:105440000000000001020304000000000102030448
:1054500002040608020C0810000000000000000012
:10546000010203040607080930000020494E4600E7
:10547000696E66004E414E006E616E003000303144
:1054800032333435363738394142434445460030AB
:1054900031323334353637383961626364656600DA
:1054A000496E66696E697479004E614E00524545D9
:1054B0004E54206D616C6C6F63207375636365651A
:1054C000646564002F6D6E742F776F726B737061FB
:1054D00063652F776F726B73706163652F4743430A
:1054E0002D31302D706970656C696E652F6A656E3F
:1054F0006B696E732D4743432D31302D7069706594
:105500006C696E652D3333385F3230323131303172
:10551000385F313633343531363230332F7372637E
:105520002F6E65776C69622F6E65776C69622F6C80
:105530006962632F7374646C69622F64746F612E87
:10554000630042616C6C6F632073756363656564AF
:105550006564000000000000000000000000000082
:10556000000000000000000000000000000000003B
:10557000000000000000000000000000000000002B
:10558000000000000000000000000000000000001B
:10559000000000000000000000000000000000000B
:1055A00000000000000000000000000000000000FB
:1055B000000000002F6D6E742F776F726B73706137
:1055C00063652F776F726B73706163652F47434319
:1055D0002D31302D706970656C696E652F6A656E4E
:1055E0006B696E732D4743432D31302D70697065A3
:1055F0006C696E652D3333385F3230323131303182
:10560000385F313633343531363230332F7372638D
:105610002F6E65776C69622F6E65776C69622F6C8F
:105620006962632F7374646C69622F6D7072656355
:105630002E630000000000000080E03779C3414382
:10564000176E05B5B5B89346F5F93FE9034F384DE8
:10565000321D30F94877825A3CBF737FDD4F157594
:10566000000000000000F03F0000000000002440A7
:1056700000000000000059400000000000408F4082
:10568000000000000088C34000000000006AF840ED
:105690000000000080842E4100000000D012634111
:1056A0000000000084D797410000000065CDCD4187
:1056B000000000205FA00242000000E87648374268
:1056C000000000A2941A6D42000040E59C30A24206
:1056D0000000901EC4BCD64200003426F56B0C437B
:1056E0000080E03779C3414300A0D8855734764322
:1056F00000C84E676DC1AB43003D9160E458E14383
:10570000408CB5781DAF154450EFE2D6E41A4B44F7
:1057100092D54D06CFF08044F64AE1C7022DB5443C
:10572000B49DD9794378EA440500000019000000CF
:105730007D000000232D302B2000686C4C00656636
:1057400067454647002C2066756E6374696F6E3A34
:105750002000617373657274696F6E202225732255
:10576000206661696C65643A2066696C6520222553
:1057700073222C206C696E65202564257325730ABD
:10578000004300504F534958002E00002020202095
:1057900020202020202828282828202020202020E1
:1057A00020202020202020202020202088101010C1
:1057B0001010101010101010101010100404040419
:1057C000040404040404101010101010104141418E
:1057D00041414101010101010101010101010101F9
:1057E000010101010101011010101010104242428C
:1057F00042424202020202020202020202020202C9
:10580000020202020202021010101020000000002A
:105810000000000000000000000000000000000088
:105820000000000000000000000000000000000078
:105830000000000000000000000000000000000068
:105840000000000000000000000000000000000058
:105850000000000000000000000000000000000048
:105860000000000000000000000000000000000038
:105870000000000000000000000000000000000028
:0C5880000000000000000000000000001C
:04588C00B50100085A
:04589000910100087A
:105894000100000000127A000014014000140140CD
:1058A40000140140002000400080000005001800A2
:1058B4000500180005001800010000003000002059
:1058C4000000000074550008945500085455000861
:1058D40000000000000000000000000000000000C4
:1058E40000000000000000000000000000000000B4
:1058F40000000000000000000000000000000000A4
:105904000000000000000000000000000000000093
:105914000000000000000000000000000000000083
:105924004300000000000000000000000000000030
:105934000000000000000000000000000000000063
:105944004300000000000000000000000000000010
:105954000000000000000000000000000000000043
:1059640043000000000000000000000000000000F0
:105974000000000000000000000000000000000023
:1059840043000000000000000000000000000000D0
:105994000000000000000000000000000000000003
:1059A40043000000000000000000000000000000B0
:1059B40000000000000000000000000000000000E3
:1059C4004300000000000000000000000000000090
:1059D40000000000000000000000000000000000C3
:1059E4004300000000000000000000000000000070
:1059F40000000000000000000000000000000000A3
:105A04006551000805510008000000008B5700088C
:105A140089570008805700088057000880570008FD
:105A240080570008805700088057000880570008F6
:105A34008057000880570008FFFFFFFFFFFFFFFFAC
:105A4400FFFFFFFFFFFF00000100415343494900EE
:105A54000000000000000000000000000000000042
:105A640000000000000000000000415343494900C9
:105A74000000000000000000000000000000000022
:0C5A840000000000000000000000000016
:040000050800216965
:00000001FF
